:080000000C9443000C94000075
:100008000C9400000C9400000C9400000C94000068
:100018000C9400000C9400000C9400000C94000058
:100028000C9400000C9400000C9400000C94000048
:100038000C9400000C9400000C94C3000C94000075
:100048000C9400000C9400000C9400000C94000028
:100058000C9400000C9400000C9400000C94000018
:100068008FC2753F01002D4E414E00494E4600009B
:1000780004002E036800010032036C000000F894AD
:10008800EE27EFBBF1E0F5BFE5BF8DE0A2E0BB27AF
:10009800ED938A95E9F780E098E0A0E0B1E0ED9370
:1000A8000197E9F7E8E7F0E085919591009761F00D
:1000B800A591B59105901590BF01F00105900D929D
:1000C8000197E1F7FB01F0CFE0E0EEBBEFEFEDBF0A
:1000D800E8E0EEBFC0E0D3E00C949B00E5E0E5BDAE
:1000E800E0E0E6BDE1E0E0936E00789420D18DD0A9
:1000F800B3D3E0E0F0E060E971E4B3D3E0E0F0E02E
:1001080060E870E4AED3E0E0F0E06FE773E484D435
:10011800A0E0B0E08FE793E40AD2AAD3E0931D03EE
:10012800F0931E0360931F037093200308956C9748
:10013800E0E0E883E983EA83EB8300E010E0CEDFC8
:10014800E0910003E030C9F0E0E0E0930003FE0135
:100158003496FA93EA9391D3F9D0E88DF98D6A8DA4
:100168007B8D90D379D393D357D487D32FD2A6D46A
:100178008F011A930A93D8015ED0E2CFFFCFAA93DA
:10018800EA93EFB7EA93E0E0E6BDE0912D03EF5F75
:10019800E0932D03A0912D03A13030F0E0E0E0932F
:1001A8002D03E1E0E0930003E991EFBFE991A99104
:1001B80018951A930A938D0111231AF4F8011AD489
:1001C8008F010030E1E01E0714F00FEF10E0F80196
:1001D80090C062D31AF05A9A5B9802C05A985B9AF8
:1001E800009388001093890019810881EAC254D3CA
:1001F8001AF05C9A5D9802C05C985D9A00938A0038
:1002080010938B0019810881DCC2529A539A549A30
:10021800559A219A229AE1EAE0938000E9E0E09376
:100228008100E0E0E0938800E0938900E0938A0091
:10023800E0938B000895D2D38D012C813D8120302D
:10024800E1E03E0714F02FEF30E02130EFEF3E07FA
:1002580014F421E03FEF0030E1E01E0714F00FEF47
:1002680010E00130EFEF1E0714F401E01FEFD90191
:10027800B0DFD801BCDFB9D3269608951A9310E0F1
:10028800133018F400001F5FFBCF199108953C98B4
:100298003D9808953C983D98F1DF3C9AEFDF3D9AF0
:1002A800EDDFE1E008953C9A3D98E8DF3C98E6DF11
:1002B80008951A930A930A2F10E0183048F407FF9C
:1002C80002C03C9801C03C9A000FF1D21F5FF5CFE5
:1002D8003C98D4DF3D98D2DF2197E6B1E071A0E0E9
:1002E800EA17E1E009F0EE27E8833D9AC7DFE881E5
:1002F8002196099119910895219670D33A2F00E01B
:100308003C9810E0183048F4000F3D98B7DF349956
:1003180001603D9AB3DF1F5FF5CF303011F03C9A92
:1003280001C03C98C4D23C98E02F5FD34AC2AFDFEB
:10033800B1DFC2D2ABE6C4D2AAE1C2D2ABE1C0D22D
:10034800ACE1B7DFA0E0B5DFAEDF08956AD364970C
:1003580043D3A0DFA0EDADDFABE3ABDF9BDFA1EDC7
:10036800A8DFA1E0CADFEC87A1E0C7DFED87A1E045
:10037800C4DFEE87A1E0C1DFEF87A1E0BEDFE88B35
:10038800A1E0BBDFE98BA1E0B8DFEA8BA1E0B5DF34
:10039800EB8BA1E0B2DFEC8BA1E0AFDFED8BA1E04E
:1003A800ACDFEE8BA1E0A9DFEF8BA1E0A6DFE88F41
:1003B800A0E0A3DFE98F77DFE0E0FC85DF01ED85D2
:1003C800F0E0EA2BFB2B8F01E0E0FE85DF01EF85F3
:1003D800F0E0EA2BFB2B9F01E0E0F889DF01E989D7
:1003E800F0E0EA2BFB2BAF01E0E0FC89DF01ED89AF
:1003F800F0E0EA2BFB2BEA87FB87E0E0FE89DF01D0
:10040800EF89F0E0EA2BFB2BE887F987E0E0F88D2D
:10041800DF01E98DF0E0EA2BFB2BEE83FF83AE8D45
:10042800BF8D0D931C93F901AE8DBF8D1296ED9380
:10043800FC93FA01AE8DBF8D1496ED93FC93EA857B
:10044800FB85AE8DBF8D1696ED93FC93E885F985F7
:10045800AE8DBF8D1896ED93FC93EE81FF81AE8D26
:10046800BF8D1A96ED93FC93F9012ED2D5D2FA01DD
:100478002BD2DF01CB01A7D1A1EEBEE285E692E443
:10048800DDD3AE8DBF8D1C96ED93FD936D937C935C
:10049800E885F98519D2DF01CB01E0E0F0E063E0FF
:1004A80073E41AD4AE8DBF8D5096ED93FD936D9382
:1004B8007C93AE8DBF8D5496A9D230976040704022
:1004C80011F408D20FD2EE8DFF8DA489B5898689E3
:1004D80097899F938F93BF93AF930CD2EA8DFB8D2F
:1004E8006C8D7D8DABD3AF91BF918F919F9157D379
:1004F80006D2A4D37F936F93FF93EF9300D2E0E0EB
:10050800F0E060E87FE344D37F936F93FF93EF932A
:10051800E1D1AF91BF918F919F9190D3AF91BF914E
:100528008F919F913CD3DED15ED2A096089579D267
:100538001A930A930A8D1B8DEE89FF89688D798D30
:10054800D801E6D1EA89FB896C897D89D80114969E
:10055800ED93FD936D937C93EE85FF85688979898A
:10056800D8011896ED93FD936D937C93D80150961E
:100578007FD1CED1D80154967BD1CAD1D8011C964F
:1005880077D1C6D1D801589673D1C2D180D1D801BC
:100598005C96ED93FD936D937C93EA85FB856C8562
:1005A8007D85D8019496ED93FD936D937C93B5D199
:1005B800D8019896ED93FD936D937C93D80190960E
:1005C80057D1A6D1198108816C9608952AD21A9319
:1005D8000A930A851B85F801A48DB58D868D978DA4
:1005E8009CD124D2D5D2D8011C96ED93FD936D935E
:1005F8007C93F8017096FF93EF93DF0193D17F937B
:100608006F93FF93EF9393D142D118D3AF91BF91DA
:100618008F919F91C4D2AF91BF917AD18ED1D001E1
:100628009FD309F008F404C0D80194967BD18BD1EC
:1006380084D10FD2D00194D328F4D801949672D1E2
:1006480008D281D174D19F938F93BF93AF93F80150
:10065800A08DB18D828D938DEF91FF916F917F91D8
:1006680097D2DF01CB0113D137D3D8015496ED933C
:10067800FD936D937C93D80155D17F936F93FF932E
:10068800EF93D8011C964ED1AF91BF918F919F9156
:10069800D5D27F936F93FF93EF93F801A481B5812F
:1006A800868197810D01D80150963CD1D001C6D2E0
:1006B800AF91BF918F919F9172D27F936F93FF9368
:1006C800EF93F801A085B185828593850D01D80146
:1006D800549628D1D001B2D2AF91BF918F919F91FA
:1006E8005ED238D13ED1D0013BD309F008F404C022
:1006F800D801989617D12ED134D1ABD1D00130D3AF
:1007080028F4D80198960ED1A4D124D1D8011C96EA
:1007180009D1D8015896ED93FD936D937C93D80138
:10072800909600D11981088195C024D12AD1AAD0E8
:100738002ED1A5E6B0ED8BEC90E42ED122D17F939B
:100748006F93FF93EF9323D1A0E0BDE689E291E494
:1007580026D229D121D1AF91BF918F919F91BCD23F
:10076800289608955ED11FD1EDECF3E164ED7EE3A8
:10077800F7D218F418D1D9DF24C015D1EAE7F2E886
:100788006AE170E4EDD209F008F409C011D116D17C
:10079800ABEDBFE089EC9FE349D1FAD112C008D193
:1007A800F7D17F936F93FF93EF9302D1F8D1AF9175
:1007B800BF918F919F9102D1ABEDBFE089E49FE398
:1007C800EED124960895D6D0309760407040D1F489
:1007D800E885F9856A857B8530976040704029F403
:1007E800EFEFFFEF6FE77FE735C0ECD02CD12CF4AB
:1007F800EBEDFFE069EC7FE32DC0EBEDFFE069EC8A
:100808007FEB28C0EC81FD816E817F81DBD064D2D3
:1008180039D0AC81BD818E819F8115D14CF4AB85D7
:10082800AA231AF0C0D09EDF15C0D1D012D112C0B1
:10083800AB85AA2342F0CBD0ABEDBFE089E490E4CE
:10084800F5D0A6D107C0AFD08DDFABEDBFE089E40E
:1008580090ECA5D12C960895E1E0F3E0FA93EA93A1
:100868000895DAD0E0E0F0E060E070E0D5D00895D7
:10087800E0E0F0E060E070E00895AAE0B7ED83E220
:100888009CE30895E883F9836A837B830895EA816A
:10089800FB816C817D810895BA93AA931A930A9378
:1008A800AA81BB8186DC8F01AB81AA230895E6DC8F
:1008B8003D98E4DC3D9AE2CCF6DCECDCA0EDF9CC2A
:1008C800F8DCA0E0F6DCF8CF6F2F660F660B762F0A
:1008D8002CD10895AE8DBF8D1C96ED91FD916D9133
:1008E8007D910895AE8DBF8D5496ED93FD936D93D4
:1008F8007C930895A089B189828993890895A091EC
:100908002E03B0912F038091300390913103089505
:10091800ED93FD936D937C930895EE81FF81688537
:1009280079850895ED91FD916D917D910895F80176
:10093800A485B585868597850895F801DBDF0D01C7
:10094800D8019496EFCFD8015096ED93FD936D930F
:100958007C930895D8019096ED93FD936D937C93C5
:100968000895F801A0A1B1A182A193A10D01D80118
:100978009896D8CF56D02497EC81FD816E817F81DF
:100988000895AC81BD818E819F8158D10895E881F9
:10099800F9816A817B81089551D1AEE4BFE88AE488
:1009A80091E4FDD00895A881B9818A819B81089539
:1009B800EEDFA0E0B0E080E89FE308958DD1DF018D
:1009C800CB01B3CEA885B9858A859B850895DFDFDD
:1009D80040D0DF01CB01C6CE5A934A933A932A936B
:1009E8001A930A9308955D814C813B812A8119816C
:1009F80008810895F195E195F0400895F095609586
:100A08007095E195FF4F6F4F7F4F0895ED91FD91E0
:100A18006D917C91139708957A936A93FA93EA9368
:100A280008959A938A93BA93AA930895182E862FB5
:100A3800612D192E972F712D1B2EBF2FF12D1A2ED8
:100A4800AE2FE12D089500240A160B0608060906A4
:100A5800089530976040704009F070580895552304
:100A680042F4503811F4E0FF04C03196691F791F31
:100A78006BF050E8572711F45F93CFC05F3F31F018
:100A8800660F000C57956795752F08955F930020A2
:100A98000AF0CEC0C7C050E8192E1522880F991F3A
:100AA8009527550F879550E8072E0522660F771F63
:100AB8007527550F67950895689401C0E8945F936A
:100AC800F2DF703818F07F3F08F4A7C056E1571BD3
:100AD800AAF4519558300EF4593030F0EFEFFFEF8B
:100AE8006FEF7FE777F91AC077275523B9F0EE0F34
:100AF800FF1F661F771F5A95D1F710C07727583008
:100B080028F0EF2FF62F672F5850F9CF552331F0E3
:100B180076956795F795E7955A95D1F700200AF4E9
:100B28006DDF5F910895689401C0E8943097604044
:100B38007040B1F0002426F0772312F400945EDFB1
:100B4800172E7EE1112032F07A95EE0FFF1F661FF7
:100B5800111CF9CFEF2FF62F612D5F938ADF5F917C
:100B680008954F93AF01FD01DA01AB01BC01CA0141
:100B7800402D012C142E4F910895EA0FFB1F681F7A
:100B88000895E095F0956095EF5FFF4F6F4F0895DA
:100B98005F9381DF903871F150E8152604C05F93A8
:100BA8007ADF903839F1703821F1572F591B2BF122
:100BB80012F4D7DFFACF583118F0AA27BB278827B5
:100BC800583028F0AB2FB82F88275850F9CF552325
:100BD80029F08695B795A7955A95D9F7502D51259F
:100BE80072F0CBDF38F46795F795E795739513F4B2
:100BF8001FC0B7DF3EDF5F910895D8F7FBCFEA1B30
:100C0800FB0B680B51F010F40094BBDF662392F3E2
:100C1800EE0FFF1F661F7A95CBF7EE27FF27BF0160
:100C28005F910895EFEFFFEF6FE77FEF5F91089512
:100C3800EFEFFFEF6FE77FE75F9108955F932BDF9B
:100C4800703859F3903849F301240894791F23F434
:100C580024F300203AF3ECCF0F921F932F933F9386
:100C68004F93112722279927689FA0018F9F302D26
:100C7800410D591F6B9F300D411D591F8E9F27D065
:100C8800BF9F25D06A9F23D0BE9F1DD0AF9F1BD08A
:100C9800AE9F110D291F391F491F591FE32FF42F2C
:100CA800652F522F4F913F912F911F910F906623DF
:100CB8002AF0550FEE1FFF1F661F02C073954BF2F7
:100CC800CEDE5F910895100D211D391F02C0200D41
:100CD800311D491F591F08955F93DDDE703821F4D7
:100CE80011200AF49FCFA4CF903809F496CF01249D
:100CF8000894970B1BF4D4F30020F3CF792F1F939C
:100D08002F933F934F931124112722273327A901AB
:100D180090E2AE17BF078607410730F0AE1BBF0B46
:100D2800860B410B089401C08894551F221F331F5E
:100D3800111CAA1FBB1F881F441F9A9551F7F90160
:100D4800612D4F913F912F911F91662332F0550FDE
:100D5800EE1FFF1F661F7A954BF281DE5F910895A3
:100D680099239AF0772342F0971748F029F4AE17A1
:100D7800BF07860720F031F09894889408959894D6
:100D8800089408951894889408957723C2F79717BC
:100D980098F3A9F7EA17FB07680788F399F3ECCFEC
:00000001FF
